:020000040800F2
:1000000048070020090200089D2100087920000807
:100010009921000889090008C92200080000000091
:10002000000000000000000000000000A521000802
:100030008D09000800000000A1210008A921000886
:1000400023020008230200082302000823020008FC
:1000500023020008230200082302000823020008EC
:1000600023020008230200082302000823020008DC
:1000700023020008230200082302000823020008CC
:1000800023020008230200082302000823020008BC
:1000900023020008230200082302000823020008AC
:1000A000230200082302000823020008230200089C
:1000B000230200082302000823020008230200088C
:1000C000230200082302000823020008230200087C
:1000D00023020008BD2200082302000823020008B2
:1000E000230200082302000823020008230200085C
:1000F000230200082302000823020008230200084C
:10010000230200082302000823020008230200083B
:10011000230200082302000823020008230200082B
:10012000230200082302000823020008230200081B
:1001300000F002F800F059F814A696E8000CB2445A
:10014000B344DA4501D100F050F8BAE80F000FA629
:1001500096E83000A5EB040504EB0607AAEB0704BC
:10016000A7F101074FEA15154FEA3414A4F1010471
:10017000AC4201D300F039F813F0010F18BFFB1A9D
:1001800043F0010300F001F8DBE718470025000009
:1001900020250000103A24BF78C878C1FAD8520749
:1001A00024BF30C830C144BF04680C6070470000F1
:1001B000704700000023002400250026103A28BFC5
:1001C00078C1FBD8520728BF30C148BF0B607047C9
:1001D0001FB500F08DFB04000020002102F02AFA78
:1001E000401C60601FBD10B510BD00F045FB1146FE
:1001F000FFF7EEFF02F06AF800F06CFB03B4FFF7C4
:10020000F2FF03BC00F0B8FB0948804709480047EB
:10021000FEE7FEE7FEE7FEE7FEE7FEE7FEE7FEE7B6
:10022000FEE7FEE704480549054A064B7047000013
:10023000AD210008310100084801002048070020D6
:1002400048030020480300200FB400B58DB010A96A
:10025000099000910B904FF0FF300A9000200C9015
:10026000064878440690064878446A4607900F99F5
:1002700009A800F0E7F80DB05DF814FBFF010000DD
:10028000170200002DE9FF5F1D464FF0FF3B91462E
:100290004FF000085F46D5E90146A96901987F1C27
:1002A0008847296A824688470028F6D1BAF1FF3F7D
:1002B0000CD0002E24F4C06419DD600614D5BAF108
:1002C0002B0F09D0BAF12D0F0ED103E0584604B020
:1002D000BDE8F09F44F48064A96901987F1C8847B9
:1002E000761E8246002E02DDBAF1300F03D0B9F13E
:1002F000000F26D032E0A969761E01987F1C44F4D5
:1003000000748847002E824605DDBAF1780F06D0CA
:10031000BAF1580F03D0B9F1000F10D01EE0B9F1B7
:10032000000F02D0B9F1100F18D1A969761E0198FB
:100330007F1C24F4007488478246102002E00820C5
:1003400000E00A20814609E0A96908FB0908761E39
:1003500001987F1C44F4007488478246002E05DD16
:100360004946504600F059F80028EDDAE96901984D
:100370008847A00502D46FF00100A8E7E00725D167
:10038000600613D5600502D5C8F1000000E04046C4
:1003900029680A1D2A600968220501D5087015E040
:1003A000220701D5088011E008600FE02868011DD0
:1003B00029600068210502D580F8008006E0210749
:1003C00002D5A0F8008001E0C0F8008038467EE742
:1003D0004FF000020429C0F0128010F0030C00F06E
:1003E0006380CCF1040CBCF1020F18BF00F8012BA4
:1003F000A8BF20F8022BA1EB0C0100F055B85FEA72
:10040000C17C24BF00F8012B00F8012B48BF00F885
:10041000012B70477047704770473A2800D2303838
:1004200020F02002412A01D3A2F13700884201D3F3
:100430004FF0FF30704700000268114413780160EC
:1004400018467047D160054979445161044979449F
:10045000116200211161114600F054B8EDFFFFFF59
:10046000A1000000426842B1016811F8013B23B1CC
:10047000521EC0E90012184670470121C160881E53
:10048000704742685AB1C368016843B983688B42B8
:1004900005D0491E521CC0E90012002070474FF0E1
:1004A000FF3070474FF0000200B513469446964661
:1004B000203922BFA0E80C50A0E80C50B1F1200177
:1004C000BFF4F7AF090728BFA0E80C5048BF0CC025
:1004D0005DF804EB890028BF40F8042B08BF704783
:1004E00048BF20F8022B11F0804F18BF00F8012BF5
:1004F000704710B5044600F0E5F90068005D00F0B3
:10050000010010BD2DE9F34F4FF0000A0C4656468E
:100510008DB001200C9001F10C000B9062690B98DA
:1005200001219047051E2DD0252D2CD0216A88470A
:10053000C0B162690B9801219047216A8847002861
:10054000F7D16269411E0B98904700E0761CA169C3
:100550000D988847216A88470028F7D1E1690D98EE
:100560008847DBE7A1690D988847A842074601D173
:10057000761CD3E7E1690D9888477F1C02D1BAF158
:10058000000F6FD06BE162690B9800273D4639463A
:1005900090472A2804D162690B98012190470125D0
:1005A000DFF8D08262690B9801219047A0F13001F9
:1005B0000A290AD24745E5DC07EB870100EB410732
:1005C000303FDFD445F01005ECE7E90601D46FF0C9
:1005D00000476C280AD04C2814D0682815D06A2807
:1005E0000DD074281CD07A281AD01DE062690B98AF
:1005F000012190476C2802D045F0040514E045F035
:1006000002050DE045F020050AE062690B98012122
:100610009047682802D045F0080505E045F40065DC
:1006200062690B9801219047C4E9015765283DD0C4
:1006300019DC58287AD00CDC452837D004DC252872
:1006400026D041289ED131E046282FD0472899D185
:100650002CE05B2877D0612828D063287CD06428E0
:1006600023D15AE0F6E06F2848D008DC66281DD078
:1006700067281BD0692821D06E2816D127E0702862
:1006800045D0732868D0752847D078280DD14DE023
:10069000A1690D988847252805463FF469AFE169AF
:1006A0000D9888476D1C3FF46AAFD8E00D9923463A
:1006B0006A466FF00100AFF30080C5E045F04000EE
:1006C00023464FF000026060A80736D43EE0E807FA
:1006D0007FF447AF2068011D21600068290501D51E
:1006E00006701BE7290701D5068017E7A90703D580
:1006F000F117C0E9006111E706600FE745F040001F
:1007000023464FF008026060A80716D41EE040F6AA
:100710000E0125EA0100606016E045F04000234626
:100720004FF00A026060A80707D40FE045F04000D0
:100730006060A80708D5234610220D996FF00100CC
:10074000AFF3008080E007E0102223460D996FF0A0
:100750000100FFF797FD77E04FF0000963284F464F
:10076000C8464B46CB4602D05B2806D038E0E806A8
:1007700001D40120A060012732E06269D4F80CB0F6
:100780000B98012190475E2807D14FF00109494697
:100790006269D4F80CB00B989047216939B90021EF
:1007A0000A4603AB43F82120491C0829FADBD8B3D9
:1007B000216949B308F1010862690B98012190474A
:1007C0005D28F4D1B9F1000F09D0002003A951F838
:1007D0002020D24341F82020401C0828F7DB03AB3F
:1007E0002069002820794FEA40701ED05B462246DF
:1007F000CDF80080CDE901970D9900286FF0010038
:1008000020DAAFF300801FE0C11703AA00EBD1612B
:100810004B1121F01F0102EB8302411A13680120E2
:10082000884003431360C7E719E00D99224600286A
:100830006FF00100009702DAAFF3008004E0AFF33D
:10084000008001E0AFF3008000280ADA401C06D1E6
:100850000C9820B14FF0FF300FB0BDE8F08F50463C
:10086000FAE7E90701D10AF1010A064400200C90D9
:1008700054E60000CCCCCC0C754600F035F8AE4602
:1008800005006946534620F00700854618B020B59C
:10089000FFF7C8FCBDE820404FF000064FF000070E
:1008A0004FF000084FF0000BAC46ACE8C009ACE8D4
:1008B000C009ACE8C009ACE8C00921F007018D46C9
:1008C0007047000010B500F013F8001D10BD00BF08
:1008D000651D000010B50446AFF300802046BDE85A
:1008E0001040FFF78BBC000000487047100000204C
:1008F00000487047300000204FF0013C50F8042BB6
:1009000051F8043B9A4221D1A2EB0C03934313EA22
:10091000CC1317D150F8042B51F8043B9A4215D14F
:10092000A2EB0C03934313EACC130BD150F8042B26
:1009300051F8043B9A4209D1A2EB0C03934313EA0A
:10094000CC13DBD04FF00000704700BFD01A01BAC3
:10095000B1FA81F101F0180122FA01F0CB40DBB2CB
:10096000C0B2C01AC1F120012CFA01F3D11A91438F
:1009700011EAC311E6D1704701491820ABBEFEE76A
:100980002600020070470000FEE7000070470000EC
:10099000EFF3108072B600BFFEE70000014690F84A
:1009A0002100022816D10868D1E90FC3026822F09D
:1009B0000E020260026822F001020260012000FAC9
:1009C00003F2CCF8042081F821000020002281F8F5
:1009D00020207047042088630120002281F8202015
:1009E0007047000090F82110022927D1026840F2D8
:1009F000040C1368C4F2020C23F00E031360136896
:100A00000CF17C018A4223F0010111601AD940F2F5
:100A10000841C4F202018A4250D040F21C41C4F2A3
:100A200002018A4242D040F23041C4F202018A42BD
:100A300048D14FF48073CCF800345CE0042181632A
:100A4000012070474321C4F202018A420EDD6B216E
:100A5000C4F202018A421BDC4421C4F202018A4230
:100A60003ED05821C4F202018A4223E00821C4F298
:100A700002018A4232D01C21C4F202018A4237D0DC
:100A80003021C4F202018A4214D14FF4807230E066
:100A90006C21C4F202018A4226D08021C4F20201F4
:100AA0008A4207D14FF0807223E000BF1023CCF8B8
:100AB000003420E04FF480321BE000BF0123CCF86B
:100AC000003418E00CF588614FF480338A4208BF87
:100AD0004FF48053CCF800340DE000BF012208E051
:100AE0004FF4805205E000BF4FF4801201E000BFD8
:100AF0001022CCF80020012180F82110416B002247
:100B0000002980F8202004BF0020704780B5884766
:100B1000002080BDB0B5044600F012F9054640F251
:100B20000000C2F200000078611C18BF044400BF3E
:100B300000F006F9401BA042FAD3B0BD2DE9F04FFA
:100B400082B00E68002E00F0E980A0F1804241F6EC
:100B5000004540F20043A2F58432C4F201050624A8
:100B6000C4F201034FEAB227A84208BF05244FF0A0
:100B7000000E4FF001080F254FF0000A4FF0000B58
:100B8000052F38BF4FEAB224009408E00E680AF13E
:100B9000010A36FA0AF20EF1040E00F0BF8008FADC
:100BA0000AFC16EA0C09F1D04E684FF6FF72C1F24A
:100BB0001002964212DC122E56D8DFE806F0350BF2
:100BC0004D495555555555555555555555555545F9
:100BD000510000BFD1F80CB046E000BF4FF6FF72E5
:100BE000C1F2210296420FDC0022C1F211029642AC
:100BF0001AD00022C1F21202964215D00022C1F290
:100C00002102964210D02FE00022C1F22202964229
:100C10000AD00022C1F23102964205D00022C1F270
:100C20003202964220D100BF8A684AB1012A14BF1D
:100C3000C0F814C0C0F810C04FF0080B14E000BF9B
:100C40004FF0040B10E000BFCA6802F1040B0BE088
:100C50004FF0000B08E000BFCA6802F1080B03E088
:100C6000CA6802F10C0B00BF02467446B9F5807FDA
:100C700024BF0432203C166805FA04F726EA070769
:100C80000BFA04F637431760CA79D2067FF57EAFB8
:100C900041F21807C4F202073A684FF6084542F0DD
:100CA00001023A603A68CFF6FF7502F00102019244
:100CB000019A2AF003021A440F2457590EF00C0629
:100CC000B440A743009C04FA06F6374357514E68D8
:100CD00040F20C44F2029A6854BF22EA090242EA46
:100CE0000902C4F201049A602268B70254BF22EAE2
:100CF000090242EA090222605A68B70354BF22EA95
:100D0000090242EA09025A600F251A68F70354BF24
:100D100022EA090242EA09021A6037E702B0BDE896
:100D2000F08F0000C26802EA0103914341EA0341E7
:100D300001617047002A08BF090401617047000083
:100D400040F24410C2F200000068704740F2000018
:100D500040F24411C2F20000C2F2000100780A68B9
:100D6000104408607047000080B542F20000C4F2F1
:100D70000200016841F010010160032000F08CF8CE
:100D80000F2000F005F800F027F8002080BD0000DB
:100D900070B540F20006C2F2000640F20801327857
:100DA000C2F200014FF47A730968B3FBF2F2044611
:100DB000B1FBF2F1084600F085FB0F2C4FF0010566
:100DC00008D838B94FF0FF3021460022002500F046
:100DD00037F87460284670BD82B041F21800C4F242
:100DE00002000168022241F001010160016801F086
:100DF000010101910199416841F0805141604068D1
:100E000000F08050009000980420C4F201000168B6
:100E100062F31A61016002B070470000002848BF09
:100E2000704700F01F01012202FA01F11C2202EAC0
:100E3000D0004EF20012CEF2000281507047000046
:100E400010B54EF60C5CCEF2000CDCF80030C3F3AB
:100E5000022E8EF00704042C28BF0424BEF10303E5
:100E60004FF0FF3E0EFA04F438BF0023A14399402F
:100E70000EFA03F39A43114300F00F0200F16043AE
:100E80000901043A03F564436244002848BF02F1B3
:100E90000C03197010BD00004EF60C51CEF200018B
:100EA0000A684FF6FF031A4060F30A2242F080609E
:100EB00040F0FD7008607047002804BF01207047B3
:100EC0002DE9F04381B042F20008C4F20208044662
:100ED000D8F800000D4600F0070088420CD2D8F880
:100EE000000020F007002843C8F80000D8F80000F0
:100EF00000F00700A8426CD1206841F20409810784
:100F0000C4F2020917D5410705D5D9F8001041F4FC
:100F1000E061C9F80010010705D5D9F8001041F4C7
:100F20006051C9F80010D9F80010A26821F0F00152
:100F30001143C9F80010C00742D1D8F8000000F0F2
:100F40000700A8420CD9D8F8000020F00700284379
:100F5000C8F80000D8F8000000F00700A84238D117
:100F60002068410707D5D9F80010E26821F4E06154
:100F70001143C9F80010000708D5D9F8000021690D
:100F800020F4605040EAC100C9F80000D9F8002000
:100F900002F00C00082841F20020C0F27A004DD186
:100FA00042F27A63C2F38341C0F60003595CD20374
:100FB00038D440F60010C0F23D0048433EE000BF88
:100FC000606859F8041C022808D0012826D189033A
:100FD00006D4012001B0BDE8F08300BF8901F8D537
:100FE000D9F8001021F003010843C9F80000FFF709
:100FF000A7FE064641F28837D9F80000616800F084
:101000000C00B0EB810F98D0FFF79AFE801BB8421E
:10101000F2D9032001B0BDE8F08300BF8907D8D51D
:10102000DEE700BFD9F8002042F27863C2F3404205
:10103000C0F600039A5C4843B0FBF2F0D9F8001008
:1010400042F26062C1F30311C0F60002515C40F24B
:10105000080220FA01F140F20400C2F20000006828
:10106000C2F200021160FFF793FE002001B0BDE85C
:10107000F083000040F2080041F20401C2F20000D7
:10108000C4F202010068096842F27062C1F30221F1
:10109000C0F60002515CC8407047000040F20800F2
:1010A00041F20401C2F20000C4F2020100680968C2
:1010B00042F27062C1F3C221C0F60002515CC84026
:1010C00070470000002804BF012070472DE9F0415F
:1010D00082B00446007841F20006C007C4F202065E
:1010E0000CD0706800F00C00042840F0818030685B
:1010F000800303D56068002800F0468120788007CF
:101100001BD5706810F00C0F09D0706800F00C004F
:10111000082840F087807068C00300F18380306841
:10112000800703D52069012840F02E81306861696D
:1011300020F0F80040EAC10030602078000713D4A6
:10114000207840072CD4E569002D00F018817068E4
:1011500000F00C00082840F0A780012D40F0048129
:10116000012002B0BDE8F081A069002800F0848071
:101170000020C4F242200121C0F88014FFF7E0FDF6
:10118000054600BF706A800700F1B280FFF7D8FD06
:10119000401B0228F6D9032002B0BDE8F08100BF51
:1011A000F0695FEAC00808D4F06940F08050F0614F
:1011B000F06900F080500090009847F20007C4F2F8
:1011C00000073868C00549D4386840F4807038603A
:1011D000FFF7B6FD054600BF3868C0053ED4FFF7EF
:1011E000AFFD401B6428F7D9032002B0BDE8F081B1
:1011F000706800F00C00082803D17068C0033FF548
:1012000076AF61683068002900F00C81B1F5A02F3D
:1012100000F00081B1F5803F40F01A8140F4803049
:101220001CE100BF2069002840F20000C4F2422007
:1012300000F0888001210160FFF782FD054600BFB4
:10124000306880073FF572AFFFF77AFD401B022838
:10125000F6D9032002B0BDE8F08100BFE168306A32
:10126000002900F09D80052900F09280012940F0BE
:10127000AF8040F00100B1E00020C4F24220002124
:10128000C0F88014FFF75CFD054600BF706A800758
:101290007FF556AFFFF754FD401B0228F6D9032017
:1012A00002B0BDE8F08100BF0027C4F24227002051
:1012B0003866FFF745FD022D05460DD130688001E7
:1012C00040F1DE80FFF73CFD401B02284FF0030099
:1012D000F4D902B0BDE8F081306880014FD5FFF746
:1012E0002FFD401B02284FF00300F5D9F1E700BFA6
:1012F00040F20800C2F20000006844F6D351C1F287
:101300006201A0FB0101480A019000BF00BF0198E3
:10131000411E002801913FF413AF00BF0198411E08
:10132000002801913FF40CAF00BF0198411E002836
:1013300001913FF405AF00BF0198411E00280191C3
:10134000E4D1FDE600210160FFF7FAFC054600BF8D
:10135000306880077FF5F1AEFFF7F2FC401B0228F2
:101360004FF00300F4D9B4E77068216A00F48032CA
:101370008A4209D1616A00F47010884204D10020C9
:1013800002B0BDE8F08100BF012002B0BDE8F081ED
:1013900040F004003062306A40F001001EE000BFFF
:1013A00020F001003062306A20F004003062FFF764
:1013B000C7FC054641F28837306A800720D5FFF721
:1013C000BFFC401BB8424FF00300F5D981E700BFD6
:1013D00020F001003062306A20F004003062FFF734
:1013E000AFFC054641F28837306A800708D4FFF722
:1013F000A7FC401BB842F7D9032002B0BDE8F0813A
:10140000B8F1000F3FF59FAEF06920F08050F06119
:1014100099E600BF40F480203060306840F48030AE
:101420001CE000BF20F480303060306820F4802061
:101430003060FFF785FC0546306880037FF55EAEBF
:10144000FFF77EFC401B64284FF00300F4D940E70F
:1014500020F480303060306820F480203060FFF766
:101460006FFC0546306880033FF548AEFFF768FC27
:10147000401B6428F6D9032002B0BDE8F08100BF0C
:10148000206AB0F5803F05D17168A26821F400316F
:10149000114371607168626A21F474111143084349
:1014A000706001203866FFF74BFC0446306880010D
:1014B0003FF565AFFFF744FC001B02284FF0030027
:1014C000F4D906E7411E0020B0EB116F1CBF0120CC
:1014D00070474EF21002CEF2000251604EF62351D8
:1014E000CEF20001F0230B7007219060116070476D
:1014F0007047000070470000B0B582B001680A680C
:10150000CC684B6902F02F05202D04F0200505D191
:1015100025B102B0BDE8B04000F050BE5FEA027CE9
:101520001EBF03F0010E04F4907313EB0E0341D1C0
:10153000036BD50618D5012B16D114F0100313D068
:10154000002201920A6801924A680192019A49694F
:1015500049064BD4818DC28DC38D002B18BF91429B
:1015600040F0F48102B0B0BD13062DD514F0800315
:101570002AD090F84120212AF4D18268B2F5805F08
:1015800003D10269002A00F06782026A531C0362D9
:1015900012784A60C28C013A1304C284E2D1C8684E
:1015A00020F08000C860C86840F04000C86002B009
:1015B000B0BD00BFD30718BF14F4807340F0D080D3
:1015C000530700F1D380D8E05206CBD514F0400287
:1015D000C8D0CA6822F04002CA60202180F84110B9
:1015E00002B0BDE8B04000F045BD00BFC16B0A6865
:1015F000526893B2002BB5D0858DAB42B2D2C28572
:101600008969202900F0A180016851E8031F026860
:1016100021F4807142E80313DBB1016851E8031F34
:10162000026821F4807142E8031393B1016851E824
:10163000031F026821F4807142E803134BB1016873
:1016400051E8031F026821F4807142E80313002B64
:10165000DAD1016851E8051F026821F0010142E872
:101660000513C3B3016851E8051F026821F00101A9
:1016700042E805137BB3016851E8051F026821F0B9
:10168000010142E8051333B3016851E8051F026800
:1016900021F0010142E80513002BDAD11BE000BF65
:1016A000016851E8051F026821F0400142E8051376
:1016B000DBB1016851E8051F026821F0400142E8F2
:1016C000051393B1016851E8051F026821F040013C
:1016D00042E805134BB1016851E8051F026821F08B
:1016E000400142E80513002BDAD1202180F8421096
:1016F00000210163016851E8031F026821F0100115
:1017000042E80313DBB1016851E8031F026821F0CE
:10171000100142E8031393B1016851E8031F026806
:1017200021F0100142E803134BB1016851E8031F97
:10173000026821F0100142E80313002BDAD1C16BDB
:1017400004460846FFF72AF9204602214163818DAD
:10175000C28D891A89B202B0BDE8B040FFF7C8BE99
:10176000436C43F001034364530706D5BEF1000FF9
:1017700003D0436C43F002034364930706D5BEF1E4
:10178000000F03D0436C43F004034364BCF1000F2B
:1017900006D55EEA050303D0436C43F008034364B7
:1017A000436C002B3FF4DEAE920605D525B104460E
:1017B00000F004FD216820464969426C01F04001B7
:1017C00002F00802891800F0B98000BF016851E8F2
:1017D000031F026821F4907142E80313BBB3016850
:1017E00051E8031F026821F4907142E8031373B3B8
:1017F000016851E8031F026821F4907142E8031365
:101800002BB3016851E8031F026821F4907142E88C
:101810000313002BDAD11AE0016851E8051F0268B2
:1018200021F0010142E80513DBB1016851E8051F11
:10183000026821F0010142E8051393B1016851E803
:10184000051F026821F0010142E805134BB1016850
:1018500051E8051F026821F0010142E80513002B41
:10186000DAD1016B012924D1016851E8031F026814
:1018700021F0100142E80313DBB1016851E8031FB6
:10188000026821F0100142E8031393B1016851E8A6
:10189000031F026821F0100142E803134BB10168F5
:1018A00051E8031F026821F0100142E80313002BE6
:1018B000DAD1202180F842100021016301684969D2
:1018C000490640F1C380016851E8051F026821F014
:1018D000400142E80513DBB1016851E8051F0268C9
:1018E00021F0400142E8051393B1016851E8051F5A
:1018F000026821F0400142E805134BB1016851E84C
:10190000051F026821F0400142E80513002BDAD1DF
:10191000C16B002900F09A8042F2B112C0F60002B9
:10192000044608464A63FFF75DF800283FF41AAE04
:10193000E06B416B02B0BDE8B04008470446FFF7DA
:10194000D9FD0020606402B0B0BD00BF891A00BF9D
:10195000026852E8032F036822F4907243E80325DB
:10196000BDB3026852E8032F036822F4907243E883
:10197000032575B3026852E8032F036822F49072BE
:1019800043E803252DB3026852E8032F036822F4CD
:10199000907243E80325002DDAD11AE0026852E87C
:1019A000052F036822F0010243E80525DDB1026836
:1019B00052E8052F036822F0010243E8052595B19E
:1019C000026852E8052F036822F0010243E805256A
:1019D0004DB1026852E8052F036822F0010243E886
:1019E0000525002DDAD1202280F842200022026352
:1019F000026852E8032F036822F0100243E803252F
:101A0000DDB1026852E8032F036822F0100243E8B8
:101A1000032595B1026852E8032F036822F01002F3
:101A200043E803254DB1026852E8032F036822F012
:101A3000100243E80325002DDAD1022289B2426365
:101A400002B0BDE8B040FFF753BD00BF02B0BDE833
:101A5000B040FFF74FBD00BF026A32F8023B6FF3A0
:101A60005F234B60026295E5002804BF01207047A8
:101A700010B5044690F8410028B9002084F84000D1
:101A8000204600F063F8242084F841002068D4E95F
:101A90000212C36823F40053C360036923F4405364
:101AA0001A430261D4E904231143C268194341F285
:101AB0000C639A431143C1604169A26921F44071EA
:101AC000114343F60002C4F201029042416103D087
:101AD000FFF7D0FA02E000BFFFF7E0FAD4E90023F5
:101AE000192148439900B0FBF1F048F21F5CC5F2A0
:101AF000EB1CA0FB0C314FF69C734909C0F6FF7339
:101B000001FB0300322303EB0010A0FB0C03F020C9
:101B100000EA531000EB0110C3F343110844906036
:101B20001069202120F490401061506920F02A00B3
:101B30005061D06840F40050D0600020606484F8A8
:101B4000411084F84210606310BD000070B586B08B
:101B5000006844F20041C4F2000100268842059664
:101B6000CDE9036602963FD043F60001C4F20101BD
:101B7000884266D141F21800C4F20200016840F6C2
:101B8000000441F4804101600168C4F2010401F4E1
:101B9000804101910199016802AD41F004010160A9
:101BA0000068294600F00400019001984FF400708D
:101BB000029002200390032005902046FEF7BEFF0E
:101BC0004FF4806002900020CDE9030020462946B2
:101BD000FEF7B4FF252000210022FFF731F9252070
:101BE000FFF71CF906B070BD41F21800C4F2020004
:101BF000416840F6000441F4003141604168C4F29C
:101C0000010401F4003101910199016802AD41F034
:101C1000040101600068294600F004000190019869
:101C20000420029002200390032005902046FEF736
:101C300085FF0820CDE90206204629460496FEF7D6
:101C40007DFF06B070BD00002DE9F04381B0044671
:101C500090F84200202809D1884600294FF0010061
:101C600018BF002A06D101B0BDE8F083022001B000
:101C7000BDE8F083002022211D46606484F84210F4
:101C800020631646FFF75CF8A685E685A16807463F
:101C9000B1F5805F03D12069002800F0A38046469B
:101CA0004FF00008E08D002800F0A18005F1010947
:101CB0000DE000BF406800266FF35F2028F8020B9C
:101CC000E08D0138E085E08D002800F090802068EC
:101CD000016889060ED4B9F1000F19D055B300BFC1
:101CE000FFF72EF8C01BA84224D820680168890697
:101CF000F6D500BF002EDDD0A168B1F5805F15D00C
:101D000009B9216991B1406800F07F000FE000BF80
:101D100001688906EED4016889065CBF01685FEA44
:101D20008161E7D401688906F2D5E3E7406806F8E7
:101D3000010BC5E7206850E8030F216820F4D0703C
:101D400041E80302BAB3206850E8030F216820F489
:101D5000D07041E8030272B3206850E8030F216895
:101D600020F4D07041E803022AB3206850E8030F42
:101D7000216820F4D07041E80302002ADAD11AE089
:101D8000206850E8050F216820F0010041E80502B5
:101D9000DAB1206850E8050F216820F0010041E821
:101DA000050292B1206850E8050F216820F001007B
:101DB00041E805024AB1206850E8050F216820F08B
:101DC000010041E80502002ADAD1202084F8410010
:101DD00084F84200002084F84000032001B0BDE8F0
:101DE000F08300BF0026E08D00287FF45FAF202045
:101DF00084F84200002001B0BDE8F0837047000085
:101E00002DE9F04381B0044690F84100202809D123
:101E1000884600294FF0010018BF002A06D101B002
:101E2000BDE8F083022001B0BDE8F08300206064CB
:101E300021201D4684F841001646FEF781FFA68446
:101E4000E684A1680646B1F5805F03D120690028C9
:101E500000F0948047464FF00008E18C206800298C
:101E600000F0928005F101090BE000BF47B317F8BD
:101E7000011B4160E18C0139E184E18C002900F013
:101E8000838001680906F1D4B9F1000F0AD0EDB1E1
:101E9000FEF756FF801BA84218D820680168090683
:101EA000F6D5E3E701680906E0D4016809065CBFDE
:101EB00001685FEA0161D9D401680906F2D5D5E766
:101EC00038F8021B00276FF35F21D2E7206850E843
:101ED000030F216820F4D07041E80302BAB32068F0
:101EE00050E8030F216820F4D07041E8030272B378
:101EF000206850E8030F216820F4D07041E8030205
:101F00002AB3206850E8030F216820F4D07041E81C
:101F10000302002ADAD11AE0206850E8050F216890
:101F200020F0010041E80502DAB1206850E8050F11
:101F3000216820F0010041E8050292B1206850E8D4
:101F4000050F216820F0010041E805024AB1206830
:101F500050E8050F216820F0010041E80502002A41
:101F6000DAD1202084F8410084F84200002084F86F
:101F70004000032001B0BDE8F08300BF0027E18CE2
:101F8000206800297FF46EAF016849060FD4F5B1CF
:101F9000691C17D10168490609D4016849065CBF6C
:101FA00001685FEA416102D401684906F2D5202048
:101FB00084F84100002001B0BDE8F083206800688B
:101FC0004006F4D4FEF7BCFE801BA842F6D9206878
:101FD00050E8030F216820F4D07041E80302EAB30F
:101FE000206850E8030F216820F4D07041E8030214
:101FF000A2B3206850E8030F216820F4D07041E8B4
:1020000003025AB3206850E8030F216820F4D0700F
:1020100041E80302002ADAD120E000BF206850E83E
:10202000050F216820F0010041E80502002A98D040
:10203000206850E8050F216820F0010041E8050202
:10204000002A3FF48EAF206850E8050F216820F089
:10205000010041E80502002A3FF483AF206850E800
:10206000050F216820F0010041E80502002AD5D1C2
:1020700077E7000070470000FEE700002DE9F04719
:1020800086B0002741F21800CDE90477CDE9027748
:10209000C4F20200016840F6004941F040010160CD
:1020A0000168C4F2010901F0400101910199016840
:1020B00009F5406541F0040101600168002201F06A
:1020C00004010191019901684FF0200841F00801D5
:1020D00001600068202100F0080001900198284666
:1020E000FEF728FE484620210022FEF723FE02AE1E
:1020F0004FF0010A022428463146CDF80880CDE988
:1021000003A70594FEF71AFD48463146CDE9028A39
:10211000CDE90474FEF712FD06B0BDE8F0870000BB
:1021200080B540F2B40043F60001C2F20000C4F2F0
:10213000010100234FF00C0C4FF4E13280E80E0057
:10214000C0E90333C0E905C3C361FFF78DFC002874
:1021500008BF80BDBDE88040FEF71ABC80B540F2E4
:10216000FC0044F20041C2F20000C4F2000100236E
:102170004FF00C0C4FF4E13280E80E00C0E903335D
:10218000C0E905C3C361FFF76FFC002808BF80BD2D
:10219000BDE88040FEF7FCBBFEE70000FEE7000064
:1021A0007047000070470000FEF7D0BD7047000088
:1021B000406A0021C185C184FFF79CB981B090F8C5
:1021C0004210222921D183680246B3F5805F09D1EC
:1021D00052F8281F52F8183C002B63D003685B6844
:1021E0000AE000BF52F8281F13B90369002BF5D08D
:1021F00003685B6803F07F030B70116801311160A5
:10220000C18D01390A04C18502D001B0704700BFF9
:102210000168CA6822F02002CA60CA6822F480728B
:10222000CA604A6922F001024A61202180F8421006
:1022300000214163026B012A3CD10163016851E82E
:10224000031F026821F0100142E80313DBB10168AB
:1022500051E8031F026821F0100142E8031393B113
:10226000016851E8031F026821F0100142E80313DE
:102270004BB1016851E8031F026821F0100142E8E8
:102280000313002BDAD101680A68D20606D50022B2
:1022900000920A680092496800910099818D01B00E
:1022A000FFF726B9026852686FF35F2221F8022B0C
:1022B0008162A5E701B0FFF7A1BD000040F2B400C4
:1022C000C2F20000FFF718B9FEE7000092B0FEF777
:1022D0004BFD00240120CDE90D44CDE90B440C90C9
:1022E00010200D904FF460100225119008A8CDE940
:1022F00009440895CDE90F54FEF7E4FE20B1EFF351
:10230000108072B6FEE700BF0F20CDE903054FF441
:102310008060CDE9060403A802210594FEF7CCFDF8
:1023200020B1EFF3108072B6FEE700BF40F6004622
:10233000C4F20106FFF7A2FEFFF7F2FEFFF70EFF61
:102340004FF4807008900120099000200A9002202C
:1023500008AC0B9030462146FEF7F0FB06F54060D6
:10236000202101220190FEF7E5FC304620210122C8
:10237000FEF7E0FC30464FF480710022FEF7DAFCF5
:10238000304620210022FEF7D5FC6420FEF7C2FB78
:10239000304620210122FEF7CDFC6420FEF7BAFB77
:1023A000304620210022FEF7C5FC6420FEF7B2FB78
:1023B000304620210122FEF7BDFC6420FEF7AAFB77
:1023C000304620210022FEF7B5FC6420FEF7A2FB78
:1023D000304620210122FEF7ADFC6420FEF79AFB77
:1023E0004FF4FA60FEF796FB40F2FC05C2F20005DE
:1023F0006AA1284604226423FFF702FD4FF4FA7015
:10240000FEF788FB67A128460D226423FFF7F8FC3E
:102410004FF4FA70FEF77EFB66A128461F22C82300
:10242000FFF7EEFC4FF4FA50FEF774FB69A1284663
:102430002B224FF4FA73FFF7E3FC40F6B830FEF7B7
:1024400069FB6FA128460E226423FFF7D9FC4FF4E5
:10245000FA70FEF75FFB6EA128460D226423FFF79A
:10246000CFFC4FF4FA70FEF755FB00BF284621461B
:1024700001220223FFF7E8FB0028F7D040F2700AA0
:10248000C2F2000A0AF1010B58464021FDF7A0FFF5
:10249000019D4FF000082846202100228AF8008084
:1024A000FEF748FCC820FEF735FB28462021012214
:1024B000FEF740FCC820FEF72DFB28462021002215
:1024C000FEF738FCC820FEF725FB28462021012214
:1024D000FEF730FCC820FEF71DFB40F2FC07C2F2FD
:1024E00000070DF10B054EA40DF12009CDF800B049
:1024F0003846294601220123FFF7A6FB0028F7D121
:1025000030462021FEF70EFC9DF80B000A28EFD084
:102510000D28EDD09AF80020511CCBB252448AF815
:1025200000103F2B507024BF00218AF80010C8B261
:102530000BF80080584621464A4603ABCDF8208070
:10254000CDF80C80FDF780FE0228D1D10398D34648
:10255000B0F10108A0F10100B0FA80F018BF4FF00F
:102560000108CA464FEA5019019820214246FEF759
:10257000E1FB3046202142464FF00008FEF7DAFB2F
:1025800030464FF480714A46D146DA46DDF800B055
:10259000FEF7D0FB8AF80080AAE700BF41540D0A7D
:1025A0000000000041542B43574D4F44453D310D31
:1025B0000A00000041542B43574A41503D227465A4
:1025C0007374222C22777868373038303233220DFA
:1025D0000A00000041542B43495053544152543D8A
:1025E00022544350222C223139322E3136382E34A7
:1025F0002E313430222C383838380D0A00000000D3
:1026000041542B4349504D4F44453D310D0A000084
:1026100041542B43495053454E440D0A00000000DD
:10262000434F554E543A25642C414C41524D3A2566
:102630006400000010B500290AD00878002807D0EF
:1026400005487844FEF758F9002801D0002010BD55
:102650000248784410BD00006A00000062000000DB
:102660000000000000000000010203040607080942
:102670000000000001020304010202030405060732
:1026800008090A0B0C0D0E0F10100000C0270008DF
:10269000000000201000000094010008D02700086E
:1026A0001000002038070000B401000810010000ED
:1026B00043000000F8FFFFFF004040404040404022
:1026C0004040414141414140404040404040404005
:1026D00040404040404040404005020202020202A9
:1026E00002020202020202020220202020202020F8
:1026F000202020020202020202029090909090900C
:1027000010101010101010101010101010101010C9
:10271000101010100202020202028888888888883D
:102720000808080808080808080808080808080829
:102730000808080802020202400000000000000031
:102740000000000000000000000000000000000089
:102750000000000000000000000000000000000079
:102760000000000000000000000000000000000069
:102770000000000000000000000000000000000059
:102780000000000000000000000000000000000049
:102790000000000000000000000000000000000039
:1027A0000000000000000000000000000000000029
:1027B0000000000000000000000000000000000019
:1027C000010000001000000000127A00000000006C
:0400000508000131BD
:00000001FF
